{"abi":[{"type":"constructor","inputs":[{"name":"_token","type":"address","internalType":"address"}],"stateMutability":"nonpayable"},{"type":"receive","stateMutability":"payable"},{"type":"function","name":"balances","inputs":[{"name":"","type":"address","internalType":"address"}],"outputs":[{"name":"","type":"uint256","internalType":"uint256"}],"stateMutability":"view"},{"type":"function","name":"deposit","inputs":[{"name":"user","type":"address","internalType":"address"},{"name":"amount","type":"uint256","internalType":"uint256"}],"outputs":[],"stateMutability":"nonpayable"},{"type":"function","name":"getContractBalance","inputs":[],"outputs":[{"name":"","type":"uint256","internalType":"uint256"}],"stateMutability":"view"},{"type":"function","name":"owner","inputs":[],"outputs":[{"name":"","type":"address","internalType":"address"}],"stateMutability":"view"},{"type":"function","name":"renounceOwnership","inputs":[],"outputs":[],"stateMutability":"nonpayable"},{"type":"function","name":"starts","inputs":[{"name":"","type":"address","internalType":"address"}],"outputs":[{"name":"","type":"uint256","internalType":"uint256"}],"stateMutability":"view"},{"type":"function","name":"token","inputs":[],"outputs":[{"name":"","type":"address","internalType":"contract JokerToken"}],"stateMutability":"view"},{"type":"function","name":"transferOwnership","inputs":[{"name":"newOwner","type":"address","internalType":"address"}],"outputs":[],"stateMutability":"nonpayable"},{"type":"function","name":"withdraw","inputs":[{"name":"user","type":"address","internalType":"address"},{"name":"amount","type":"uint256","internalType":"uint256"}],"outputs":[],"stateMutability":"nonpayable"},{"type":"event","name":"Deposit","inputs":[{"name":"user","type":"address","indexed":true,"internalType":"address"},{"name":"amount","type":"uint256","indexed":false,"internalType":"uint256"}],"anonymous":false},{"type":"event","name":"OwnershipTransferred","inputs":[{"name":"previousOwner","type":"address","indexed":true,"internalType":"address"},{"name":"newOwner","type":"address","indexed":true,"internalType":"address"}],"anonymous":false},{"type":"event","name":"Withdraw","inputs":[{"name":"user","type":"address","indexed":true,"internalType":"address"},{"name":"amount","type":"uint256","indexed":false,"internalType":"uint256"}],"anonymous":false},{"type":"error","name":"INSUFFICIENT_AMOUNT","inputs":[{"name":"","type":"uint256","internalType":"uint256"}]},{"type":"error","name":"INSUFFICIENT_BALANCE","inputs":[]},{"type":"error","name":"OwnableInvalidOwner","inputs":[{"name":"owner","type":"address","internalType":"address"}]},{"type":"error","name":"OwnableUnauthorizedAccount","inputs":[{"name":"account","type":"address","internalType":"address"}]},{"type":"error","name":"USER_ALREADY_DEPOSIT","inputs":[{"name":"","type":"address","internalType":"address"}]}],"bytecode":{"object":"0x608060405234801561001057600080fd5b5060405161071338038061071383398101604081905261002f916100d4565b338061005557604051631e4fbdf760e01b81526000600482015260240160405180910390fd5b61005e81610084565b50600180546001600160a01b0319166001600160a01b0392909216919091179055610104565b600080546001600160a01b038381166001600160a01b0319831681178455604051919092169283917f8be0079c531659141344cd1fd0a4f28419497f9722a3daafe3b4186f6b6457e09190a35050565b6000602082840312156100e657600080fd5b81516001600160a01b03811681146100fd57600080fd5b9392505050565b610600806101136000396000f3fe60806040526004361061008a5760003560e01c80638da5cb5b116100595780638da5cb5b14610120578063b6c238b514610152578063f2fde38b1461017f578063f3fef3a31461019f578063fc0c546a146101bf57600080fd5b806327e235e31461009657806347e7ef24146100d65780636f9fb98a146100f8578063715018a61461010b57600080fd5b3661009157005b600080fd5b3480156100a257600080fd5b506100c36100b136600461051a565b60026020526000908152604090205481565b6040519081526020015b60405180910390f35b3480156100e257600080fd5b506100f66100f136600461053c565b6101df565b005b34801561010457600080fd5b50476100c3565b34801561011757600080fd5b506100f661030f565b34801561012c57600080fd5b506000546001600160a01b03165b6040516001600160a01b0390911681526020016100cd565b34801561015e57600080fd5b506100c361016d36600461051a565b60036020526000908152604090205481565b34801561018b57600080fd5b506100f661019a36600461051a565b610323565b3480156101ab57600080fd5b506100f66101ba36600461053c565b610361565b3480156101cb57600080fd5b5060015461013a906001600160a01b031681565b808061020a576040516302506a3760e61b815260040161020191815260200190565b60405180910390fd5b506001600160a01b03821660009081526002602052604090205415801561024757506001600160a01b038216600090815260036020526040902054155b82906102725760405163495f2ced60e01b81526001600160a01b039091166004820152602401610201565b506001600160a01b0382166000908152600260205260408120805483929061029b90849061057c565b90915550506001600160a01b038216600090815260036020526040812080544292906102c890849061057c565b90915550506040518181526001600160a01b038316907fe1fffcc4923d04b559f4d29a8bfc6cda04eb5b0d3c460751c2402c5c5cc9109c9060200160405180910390a25050565b610317610481565b61032160006104ae565b565b61032b610481565b6001600160a01b03811661035557604051631e4fbdf760e01b815260006004820152602401610201565b61035e816104ae565b50565b6001600160a01b03821660009081526002602052604090205481111561039a57604051632858f9ab60e11b815260040160405180910390fd5b6001600160a01b038216600090815260026020526040812080548392906103c2908490610595565b90915550506040518181526001600160a01b038316907f884edad9ce6fa2440d8a54cc123490eb96d2768479d49ff9c7366125a94243649060200160405180910390a260015460405163a9059cbb60e01b81526001600160a01b038481166004830152602482018490529091169063a9059cbb906044016020604051808303816000875af1158015610458573d6000803e3d6000fd5b505050506040513d601f19601f8201168201806040525081019061047c91906105a8565b505050565b6000546001600160a01b031633146103215760405163118cdaa760e01b8152336004820152602401610201565b600080546001600160a01b038381166001600160a01b0319831681178455604051919092169283917f8be0079c531659141344cd1fd0a4f28419497f9722a3daafe3b4186f6b6457e09190a35050565b80356001600160a01b038116811461051557600080fd5b919050565b60006020828403121561052c57600080fd5b610535826104fe565b9392505050565b6000806040838503121561054f57600080fd5b610558836104fe565b946020939093013593505050565b634e487b7160e01b600052601160045260246000fd5b8082018082111561058f5761058f610566565b92915050565b8181038181111561058f5761058f610566565b6000602082840312156105ba57600080fd5b8151801515811461053557600080fdfea264697066735822122069849aaa2721648f1aa601278975c20a0a40ece8f6353ccd458ec22e39d4076c64736f6c634300081c0033","linkReferences":{}},"methodIdentifiers":{"balances(address)":"27e235e3","deposit(address,uint256)":"47e7ef24","getContractBalance()":"6f9fb98a","owner()":"8da5cb5b","renounceOwnership()":"715018a6","starts(address)":"b6c238b5","token()":"fc0c546a","transferOwnership(address)":"f2fde38b","withdraw(address,uint256)":"f3fef3a3"},"id":22}